:020000040800F2
:1000000000500020591700084D150008551500082C
:100010005D150008651500086D150008000000005A
:10002000000000000000000000000000751500083E
:1000300081150008000000008D15000899150008C2
:10004000A1170008A1170008A1170008A1170008B0
:10005000A1170008A1170008A1170008A1170008A0
:10006000A1170008A1170008A1170008A117000890
:10007000A1170008A1170008A1170008A117000880
:10008000A1170008A1170008A1170008A117000870
:10009000A1170008A1170008A1170008A51500085E
:1000A000A1170008B5150008A1170008A11700083E
:1000B000A1170008A1170008A1170008A117000840
:1000C000A1170008A1170008A1170008A117000830
:1000D000A1170008A1170008A1170008A117000820
:1000E000A1170008A1170008A117000800000000D0
:1000F0000000000000000000000000000000000000
:0C01000000000000000000005FF808F1A3
:1001100010B5054C237833B9044B13B10448AFF341
:1001200000800123237010BDD801002000000000D2
:10013000C462000808B5034B1BB103490348AFF381
:10014000008008BD00000000DC010020C46200083F
:10015000034613F8012B002AFBD1181A0138704707
:1001600081F0004102E000BF83F0004330B54FEA68
:1001700041044FEA430594EA050F08BF90EA020FD5
:100180001FBF54EA000C55EA020C7FEA645C7FEA68
:10019000655C00F0E2804FEA5454D4EB5555B8BF8B
:1001A0006D420CDD2C4480EA020281EA030382EAFC
:1001B000000083EA010180EA020281EA0303362D8E
:1001C00088BF30BD11F0004F4FEA01314FF4801C61
:1001D0004CEA113102D0404261EB410113F0004F73
:1001E0004FEA03334CEA133302D0524263EB43032A
:1001F00094EA050F00F0A780A4F10104D5F1200EC8
:100200000DDB02FA0EFC22FA05F2801841F1000122
:1002100003FA0EF2801843FA05F359410EE0A5F1F6
:1002200020050EF1200E012A03FA0EFC28BF4CF027
:10023000020C43FA05F3C01851EBE37101F00045DD
:1002400007D54FF0000EDCF1000C7EEB00006EEBEA
:100250000101B1F5801F1BD3B1F5001F0CD3490874
:100260005FEA30004FEA3C0C04F101044FEA4452CB
:1002700012F5800F80F09A80BCF1004F08BF5FEA52
:10028000500C50F1000041EB045141EA050130BD32
:100290005FEA4C0C404141EB0101013C28BFB1F544
:1002A000801FE9D291F0000F04BF01460020B1FA8F
:1002B00081F308BF2033A3F10B03B3F120020CDA62
:1002C0000C3208DD02F1140CC2F10C0201FA0CF040
:1002D00021FA02F10CE002F11402D8BFC2F1200CA5
:1002E00001FA02F120FA0CFCDCBF41EA0C0190405B
:1002F000E41AA2BF01EB0451294330BD6FEA0404A4
:100300001F3C1CDA0C340EDC04F11404C4F120028E
:1003100020FA04F001FA02F340EA030021FA04F3A0
:1003200045EA030130BDC4F10C04C4F1200220FAF7
:1003300002F001FA04F340EA0300294630BD21FA35
:1003400004F0294630BD94F0000F83F4801306BFFB
:1003500081F480110134013D4EE77FEA645C18BFEF
:100360007FEA655C29D094EA050F08BF90EA020F86
:1003700005D054EA000C04BF1946104630BD91EA7E
:10038000030F1EBF0021002030BD5FEA545C05D181
:100390004000494128BF41F0004130BD14F58004C0
:1003A0003CBF01F5801130BD01F0004545F0FE4134
:1003B00041F470014FF0000030BD7FEA645C1ABF69
:1003C000194610467FEA655C1CBF0B46024650EAA0
:1003D000013406BF52EA033591EA030F41F40021CC
:1003E00030BD00BF90F0000F04BF0021704730B552
:1003F0004FF4806404F132044FF000054FF0000127
:1004000050E700BF90F0000F04BF0021704730B5E7
:100410004FF4806404F1320410F0004548BF4042BC
:100420004FF000013EE700BF42004FEAE2014FEA11
:1004300031014FEA02701FBF12F07F4393F07F4FEC
:1004400081F06051704732F07F4208BF704793F0EF
:100450007F4F04BF41F40021704730B54FF4607402
:1004600001F0004521F000411CE700BF50EA010205
:1004700008BF704730B54FF000050AE050EA0102AE
:1004800008BF704730B511F0004502D5404261EB1E
:1004900041014FF4806404F132045FEA915C3FF45F
:1004A000D8AE4FF003025FEADC0C18BF03325FEAFC
:1004B000DC0C18BF033202EBDC02C2F1200300FAAD
:1004C00003FC20FA02F001FA03FE40EA0E0021FAD2
:1004D00002F11444BDE600BF70B54FF0FF0C4CF4C0
:1004E000E06C1CEA11541DBF1CEA135594EA0C0F72
:1004F00095EA0C0F00F0DEF82C4481EA030621EAAD
:100500004C5123EA4C5350EA013518BF52EA0335E7
:1005100041F4801143F4801338D0A0FB02CE4FF099
:100520000005E1FB02E506F00042E0FB03E54FF0C9
:100530000006E1FB03569CF0000F18BF4EF0010EC1
:10054000A4F1FF04B6F5007F64F5407404D25FEABD
:100550004E0E6D4146EB060642EAC62141EA555170
:100560004FEAC52040EA5E504FEACE2EB4F1FD0CB2
:1005700088BFBCF5E06F1ED8BEF1004F08BF5FEA30
:10058000500E50F1000041EB045170BD06F00046E2
:1005900046EA010140EA020081EA0301B4EB5C048F
:1005A000C2BFD4EB0C0541EA045170BD41F4801187
:1005B0004FF0000E013C00F3AB8014F1360FDEBFAC
:1005C000002001F0004170BDC4F10004203C35DA88
:1005D0000C341BDC04F11404C4F1200500FA05F30B
:1005E00020FA04F001FA05F240EA020001F00042AC
:1005F00021F0004110EBD37021FA04F642EB060122
:100600005EEA430E08BF20EAD37070BDC4F10C044B
:10061000C4F1200500FA04F320FA05F001FA04F20F
:1006200040EA020001F0004110EBD37041F10001FB
:100630005EEA430E08BF20EAD37070BDC4F1200506
:1006400000FA05F24EEA020E20FA04F301FA05F26E
:1006500043EA020321FA04F001F0004121FA04F216
:1006600020EA020000EBD3705EEA430E08BF20EAE6
:10067000D37070BD94F0000F0FD101F00046400020
:1006800041EB010111F4801F08BF013CF7D041EAA2
:10069000060195F0000F18BF704703F000465200A6
:1006A00043EB030313F4801F08BF013DF7D043EA77
:1006B0000603704794EA0C0F0CEA135518BF95EA2D
:1006C0000C0F0CD050EA410618BF52EA4306D1D1B4
:1006D00081EA030101F000414FF0000070BD50EAD3
:1006E000410606BF1046194652EA430619D094EA5D
:1006F0000C0F02D150EA013613D195EA0C0F05D147
:1007000052EA03361CBF104619460AD181EA03019A
:1007100001F0004141F0FE4141F470014FF0000052
:1007200070BD41F0FE4141F4780170BD70B54FF0ED
:10073000FF0C4CF4E06C1CEA11541DBF1CEA13556D
:1007400094EA0C0F95EA0C0F00F0A7F8A4EB05044F
:1007500081EA030E52EA03354FEA013100F0888046
:100760004FEA03334FF0805545EA131343EA12630F
:100770004FEA022245EA111545EA10654FEA0026C4
:100780000EF000419D4208BF964244F1FD0404F57D
:10079000407402D25B084FEA3202B61A65EB0305D9
:1007A0005B084FEA32024FF480104FF4002CB6EB96
:1007B000020E75EB030E22BFB61A754640EA0C0016
:1007C0005B084FEA3202B6EB020E75EB030E22BF56
:1007D000B61A754640EA5C005B084FEA3202B6EB97
:1007E000020E75EB030E22BFB61A754640EA9C0056
:1007F0005B084FEA3202B6EB020E75EB030E22BF26
:10080000B61A754640EADC0055EA060E18D04FEAE3
:10081000051545EA16754FEA06164FEAC30343EA83
:1008200052734FEAC2025FEA1C1CC0D111F4801F50
:100830000BD141EA00014FF000004FF0004CB6E749
:1008400011F4801F04BF01430020B4F1FD0C88BFE8
:10085000BCF5E06F3FF6AFAEB5EB030C04BFB6EBF3
:10086000020C5FEA500C50F1000041EB045170BDE6
:100870000EF0004E4EEA113114EB5C04C2BFD4EB13
:100880000C0541EA045170BD41F480114FF0000E97
:10089000013C90E645EA060E8DE60CEA135594EA13
:1008A0000C0F08BF95EA0C0F3FF43BAF94EA0C0F16
:1008B0000AD150EA01347FF434AF95EA0C0F7FF48B
:1008C00025AF104619462CE795EA0C0F06D152EADF
:1008D00003353FF4FDAE1046194622E750EA4106C3
:1008E00018BF52EA43067FF4C5AE50EA41047FF4D4
:1008F0000DAF52EA43057FF4EBAE12E74FF0FF3C39
:1009000006E000BF4FF0010C02E000BF4FF0010C09
:100910004DF804CD4FEA410C7FEA6C5C4FEA430C82
:1009200018BF7FEA6C5C1BD001B050EA410C0CBFD1
:1009300052EA430C91EA030F02BF90EA020F002033
:10094000704710F1000F91EA030F58BF994208BF9A
:1009500090422CBFD8176FEAE37040F00100704757
:100960004FEA410C7FEA6C5C02D150EA013C07D1AE
:100970004FEA430C7FEA6C5CD6D152EA033CD3D0F9
:100980005DF8040B704700BF8446104662468C46F3
:100990001946634600E000BF01B5FFF7B7FF002826
:1009A00048BF10F1000F01BD4DF808EDFFF7F4FF4F
:1009B0000CBF012000205DF808FB00BF4DF808EDDA
:1009C000FFF7EAFF34BF012000205DF808FB00BFFD
:1009D0004DF808EDFFF7E0FF94BF012000205DF81F
:1009E00008FB00BF4DF808EDFFF7CEFF94BF0120D4
:1009F00000205DF808FB00BF4DF808EDFFF7C4FFCD
:100A000034BF012000205DF808FB00BF4FEA410C15
:100A10007FEA6C5C02D150EA013C0AD14FEA430CF8
:100A20007FEA6C5C02D152EA033C02D14FF0000035
:100A300070474FF0010070474FEA410212F5001273
:100A400015D211D56FF47873B3EB625212D94FEA15
:100A5000C12343F0004343EA505311F0004F23FAFF
:100A600002F018BF404270474FF00000704750EA54
:100A7000013005D111F0004008BF6FF00040704711
:100A80004FF00000704700BF80F0004002E000BF60
:100A900081F0004142001FBF5FEA410392EA030F69
:100AA0007FEA226C7FEA236C6AD04FEA1262D2EBB3
:100AB0001363C1BFD218414048404140B8BF5B42B8
:100AC000192B88BF704710F0004F40F4000020F051
:100AD0007F4018BF404211F0004F41F4000121F067
:100AE0007F4118BF494292EA030F3FD0A2F10102B1
:100AF00041FA03FC10EB0C00C3F1200301FA03F1EF
:100B000000F0004302D5494260EB4000B0F5000F11
:100B100013D3B0F1807F06D340084FEA310102F1D0
:100B20000102FE2A51D2B1F1004F40EBC25008BF82
:100B300020F0010040EA03007047490040EB00004C
:100B4000013A28BFB0F5000FEDD2B0FA80FCACF14D
:100B5000080CB2EB0C0200FA0CF0AABF00EBC2507A
:100B600052421843BCBFD0401843704792F0000F68
:100B700081F4000106BF80F400000132013BB5E7BB
:100B80004FEA41037FEA226C18BF7FEA236C21D031
:100B900092EA030F04D092F0000F08BF0846704796
:100BA00090EA010F1CBF0020704712F07F4F04D164
:100BB000400028BF40F00040704712F100723CBF77
:100BC00000F50000704700F0004343F0FE4040F4A1
:100BD000000070477FEA226216BF08467FEA23635F
:100BE0000146420206BF5FEA412390EA010F40F44A
:100BF000800070474FF0000304E000BF10F0004396
:100C000048BF40425FEA000C08BF704743F096437C
:100C100001464FF000001CE050EA010208BF704797
:100C20004FF000030AE000BF50EA010208BF70471E
:100C300011F0004302D5404261EB41015FEA010C33
:100C400002BF84460146002043F0B64308BFA3F12B
:100C50008053A3F50003BCFA8CF2083AA3EBC2530D
:100C600010DB01FA02FC634400FA02FCC2F120022C
:100C7000BCF1004F20FA02F243EB020008BF20F063
:100C80000100704702F1200201FA02FCC2F12002C9
:100C900050EA4C0021FA02F243EB020008BF20EABE
:100CA000DC7070474FF0FF0C1CEAD0521EBF1CEAEC
:100CB000D15392EA0C0F93EA0C0F6FD01A4480EADA
:100CC000010C400218BF5FEA41211ED04FF00063C3
:100CD00043EA501043EA5111A0FB01310CF00040EF
:100CE000B1F5000F3EBF490041EAD3715B0040EA15
:100CF000010062F17F02FD2A1DD8B3F1004F40EBE5
:100D0000C25008BF20F00100704790F0000F0CF0B7
:100D1000004C08BF49024CEA502040EA51207F3A7B
:100D2000C2BFD2F1FF0340EAC250704740F4000056
:100D30004FF00003013A5DDC12F1190FDCBF00F047
:100D400000407047C2F10002410021FA02F1C2F1F5
:100D5000200200FA02FC5FEA310040F1000053EA91
:100D60004C0308BF20EADC70704792F0000F00F0DF
:100D7000004C02BF400010F4000F013AF9D040EAE5
:100D80000C0093F0000F01F0004C02BF490011F479
:100D9000000F013BF9D041EA0C018FE70CEAD15377
:100DA00092EA0C0F18BF93EA0C0F0AD030F0004CF7
:100DB00018BF31F0004CD8D180EA010000F00040AB
:100DC000704790F0000F17BF90F0004F084691F069
:100DD000000F91F0004F14D092EA0C0F01D14202A3
:100DE0000FD193EA0C0F03D14B0218BF084608D16C
:100DF00080EA010000F0004040F0FE4040F40000B6
:100E0000704740F0FE4040F4400070474FF0FF0C48
:100E10001CEAD0521EBF1CEAD15392EA0C0F93EA8F
:100E20000C0F69D0A2EB030280EA010C49024FEAE1
:100E3000402037D04FF0805343EA111143EA10139A
:100E40000CF000408B4238BF5B0042F17D024FF452
:100E5000000C8B4224BF5B1A40EA0C00B3EB510F2D
:100E600024BFA3EB510340EA5C00B3EB910F24BF16
:100E7000A3EB910340EA9C00B3EBD10F24BFA3EB9B
:100E8000D10340EADC001B0118BF5FEA1C1CE0D163
:100E9000FD2A3FF650AF8B4240EBC25008BF20F016
:100EA000010070470CF0004C4CEA50207F32C2BF6A
:100EB000D2F1FF0340EAC250704740F400004FF007
:100EC0000003013A37E792F0000F00F0004C02BF38
:100ED000400010F4000F013AF9D040EA0C0093F002
:100EE000000F01F0004C02BF490011F4000F013B5C
:100EF000F9D041EA0C0195E70CEAD15392EA0C0FC4
:100F000008D142027FF47DAF93EA0C0F7FF470AFFB
:100F1000084676E793EA0C0F04D14B023FF44CAF3E
:100F200008466EE730F0004C18BF31F0004CCAD1D3
:100F300030F000427FF45CAF31F000437FF43CAF0F
:100F40005FE700BF80B500AF00F02CFC00F04EF86A
:100F500000F078F900F086F800F0D4F800F048F9D5
:100F60001B4801F0BDFB0C211A4801F05BFC194B3A
:100F70001B684FF4A0721A64174B1B78DBB2002B6E
:100F8000FAD0154B00221A70144B1B889BB2002B11
:100F9000F2D0124B1B889BB21A4613469B00134497
:100FA0009B001846FFF72AFE034619460C48FFF738
:100FB0002DFF03461A460B4B1A600A4B1B68184656
:100FC000FFF732FA02460B46074803F0E5F9D3E78C
:100FD0000002002048020020F8010020F601002055
:100FE000001BB74AFC010020E062000880B590B009
:100FF00000AF07F1180328220021184603F022FA57
:101000003B1D00221A605A609A60DA601A6102235E
:10101000BB610123BB621023FB6200237B6307F1EA
:101020001803184600F0FCFE0346002B01D000F028
:10103000AFF90F237B600023BB600023FB6000231C
:101040003B6100237B613B1D0021184601F06AF9DA
:101050000346002B01D000F09BF900BF4037BD468E
:1010600080BD000080B586B000AF07F10803002204
:101070001A605A609A60DA603B4600221A605A6031
:101080001E4B1F4A1A601D4B4F225A601B4B0022F9
:101090009A601A4B4FF6FF72DA60184B00221A6101
:1010A000164B00225A61154B00229A61134801F039
:1010B000C7FA0346002B01D000F06AF94FF48053C1
:1010C000BB6007F1080319460C4801F0FFFD034619
:1010D000002B01D000F05CF900233B6000237B6013
:1010E0003B461946054802F095F90346002B01D00E
:1010F00000F04EF900BF1837BD4680BD0002002049
:10110000002C014080B58EB000AF07F1280300220B
:101110001A605A609A60DA6007F1200300221A60B0
:101120005A603B1D00221A605A609A60DA601A61A8
:101130005A619A612D4B4FF080421A602B4B00226E
:101140005A602A4B00229A60284B40F21F32DA6024
:10115000264B00221A61254B00229A61234801F098
:101160006FFA0346002B01D000F012F94FF48053C0
:10117000BB6207F1280319461C4801F0A7FD03468E
:10118000002B01D000F004F9184801F0F3FA0346EF
:10119000002B01D000F0FCF800233B6200237B62AF
:1011A00007F120031946114802F034F90346002BD9
:1011B00001D000F0EDF860237B600023BB600023CA
:1011C000FB6000237B613B1D0C221946074801F0A0
:1011D000BBFC0346002B01D000F0DAF8034800F016
:1011E00047F900BF3837BD4680BD00BF4802002028
:1011F00080B500AF114B124A1A60104B4FF4E13228
:101200005A600E4B00229A600C4B0022DA600B4BA6
:1012100000221A61094B08225A61084B00229A6188
:10122000064B0022DA61054802F064F90346002B00
:1012300001D000F0ADF800BF80BD00BF90020020DB
:101240000044004080B586B000AF07F108030022DB
:101250001A605A609A60DA60224B9B69214A43F017
:10126000100393611F4B9B6903F010037B607B6845
:101270001C4B9B691B4A43F004039361194B9B6908
:1012800003F004033B603B6801224FF40051164811
:1012900000F07CFD4FF40053BB600123FB60002392
:1012A0003B6102237B6107F1080319460E4800F0F9
:1012B000E9FB4FF40073BB600C4BFB6000233B6108
:1012C00007F1080319460A4800F0DCFB0022002160
:1012D000172000F0A0FB172000F0B9FB00BF183763
:1012E000BD4680BD001002400010014000002110EA
:1012F0000008014080B584B000AF0346FB80FB8846
:10130000B3F5007F22D1134B1B685B6AFB814FF45E
:101310000051114800F052FD104B1B78DBB2002B3E
:1013200006D00F4AFB8913800C4B00221A700DE087
:101330000B4B1B889BB2FA89D31A9AB2094B1A80BD
:10134000074AFB891380084B01221A7000BF10372F
:10135000BD4680BD000200200010014000000020BA
:10136000F4010020F6010020F801002080B582B0D1
:1013700000AF7860391D4FF0FF330122034802F0BF
:1013800011F97B6818460837BD4680BD90020020E1
:1013900080B400AF72B600BF00BFFDE780B485B077
:1013A00000AF154B9B69144A43F001039361124B44
:1013B0009B6903F00103BB60BB680F4BDB690E4AFE
:1013C00043F08053D3610C4BDB6903F080537B60A7
:1013D0007B680A4B5B68FB60FB6823F0E063FB60A3
:1013E000FB6843F00073FB60044AFB68536000BF76
:1013F0001437BD4680BC7047001002400000014019
:1014000080B584B000AF78607B681B68164A934251
:1014100014D1164B9B69154A43F400639361134B37
:101420009B6903F40063FB60FB6800220021192024
:1014300000F0F1FA192000F00AFB10E07B681B684D
:10144000B3F1804F0BD1094BDB69084A43F001032C
:10145000D361064BDB6903F00103BB60BB6800BFCF
:101460001037BD4680BD00BF002C01400010024077
:1014700080B588B000AF786007F1100300221A60D1
:101480005A609A60DA607B681B68B3F1804F17D1AD
:101490000D4B9B690C4A43F0040393610A4B9B6913
:1014A00003F00403FB60FB6808233B6102237B61BC
:1014B0000223FB6107F110031946044800F0E2FA29
:1014C00000BF2037BD4680BD00100240000801402B
:1014D00080B588B000AF786007F1100300221A6071
:1014E0005A609A60DA607B681B68154A934223D180
:1014F000144BDB69134A43F40033D361114BDB69AE
:1015000003F40033FB60FB680E4B9B690D4A43F00C
:10151000040393610B4B9B6903F00403BB60BB683E
:1015200004233B6112237B610323FB6107F110035A
:101530001946054800F0A6FA00BF2037BD4680BD19
:1015400000440040001002400008014080B400AF99
:1015500000BFFDE780B400AF00BFFDE780B400AF7F
:1015600000BFFDE780B400AF00BFFDE780B400AF6F
:1015700000BFFDE780B400AF00BFBD4680BC704730
:1015800080B400AF00BFBD4680BC704780B400AFE0
:1015900000BFBD4680BC704780B500AF00F048F981
:1015A00000BF80BD80B500AF4FF4007000F020FC9C
:1015B00000BF80BD80B500AF024801F0D5F900BF83
:1015C00080BD00BF0002002080B400AF0123184698
:1015D000BD4680BC704780B582B000AF786039608E
:1015E00002F082FF034616221A604FF0FF331846BE
:1015F0000837BD4680BD80B582B000AF78604FF03F
:10160000FF317868FFF7E7FF00BFFDE780B586B0E0
:1016100000AFF860B9607A6000237B610AE0AFF345
:1016200000800146BB685A1CBA60CAB21A707B6956
:1016300001337B617A697B689A42F0DB7B681846EC
:101640001837BD4680BD80B586B000AFF860B96080
:101650007A6000237B6109E0BB685A1CBA601B7882
:101660001846FFF783FE7B6901337B617A697B68EB
:101670009A42F1DB7B6818461837BD4680BD80B4BE
:1016800083B000AF78604FF0FF3318460C37BD468B
:1016900080BC704780B483B000AF786039603B682D
:1016A0004FF400525A60002318460C37BD4680BCE8
:1016B000704780B483B000AF7860012318460C37C0
:1016C000BD4680BC704780B485B000AFF860B9609B
:1016D0007A60002318461437BD4680BC704700006E
:1016E00080B586B000AF7860144A154BD31A7B6181
:1016F0007B693B61134B1B68002B02D1114B124AD3
:101700001A60104B1A687B6813443A699A4207D2F0
:1017100002F0EAFE03460C221A604FF0FF3309E0A4
:10172000084B1B68FB60074B1A687B681344054A2B
:101730001360FB6818461837BD4680BD0050002076
:1017400000040000D80200203004002080B400AF64
:1017500000BFBD4680BC7047FFF7F8FF0B480C493F
:101760000C4A002302E0D458C4500433C4188C42FD
:10177000F9D3094A094C002301E013600432A24264
:10178000FBD302F0B7FEFFF7DDFB7047000000203F
:10179000D80100209C660008D80100202C040020FD
:1017A000FEE7000080B500AF084B1B68074A43F016
:1017B00010031360032000F023F90F2000F008F855
:1017C000FFF7ECFD0023184680BD00BF002002405B
:1017D00080B582B000AF7860124B1A68124B1B784C
:1017E00019464FF47A73B3FBF1F3B2FBF3F31846E7
:1017F00000F03BF90346002B01D001230EE07B688B
:101800000F2B0AD8002279684FF0FF3000F003F95F
:10181000064A7B681360002300E00123184608375E
:10182000BD4680BD040000200C0000200800002000
:1018300080B400AF054B1B781A46054B1B68134458
:10184000034A136000BFBD4680BC70470C000020F7
:10185000DC02002080B400AF024B1B681846BD4676
:1018600080BC7047DC02002080B485B000AF786097
:101870007B6803F00703FB600C4BDB68BB60BA6856
:101880004FF6FF031340BB60FB681A02BB681343AB
:1018900043F0BF6343F40033BB60044ABB68D360CA
:1018A00000BF1437BD4680BC704700BF00ED00E0AC
:1018B00080B400AF044BDB681B0A03F00703184633
:1018C000BD4680BC704700BF00ED00E080B483B02F
:1018D00000AF0346FB7197F90730002B0BDBFB7958
:1018E00003F01F02064997F907305B09012000FA4F
:1018F00002F241F8232000BF0C37BD4680BC704780
:1019000000E100E080B483B000AF03463960FB71B2
:1019100097F90730002B0ADB3B68DAB20C4997F9DC
:1019200007301201D2B20B4483F800230AE03B686F
:10193000DAB20849FB7903F00F03043B1201D2B27B
:101940000B441A7600BF0C37BD4680BC704700BF01
:1019500000E100E000ED00E080B489B000AFF86085
:10196000B9607A60FB6803F00703FB61FB69C3F1B0
:101970000703042B28BF0423BB61FB690433062B38
:1019800002D9FB69033B00E000237B614FF0FF328B
:10199000BB6902FA03F3DA43BB681A407B699A40D9
:1019A0004FF0FF317B6901FA03F3D9437B680B40A9
:1019B000134318462437BD4680BC704780B582B0BB
:1019C00000AF78607B68013BB3F1807F01D30123D6
:1019D0000FE00A4A7B68013B53600F214FF0FF3054
:1019E000FFF790FF054B00229A60044B07221A6014
:1019F000002318460837BD4680BD00BF10E000E058
:101A000080B582B000AF78607868FFF72DFF00BF27
:101A10000837BD4680BD80B586B000AF0346B960CB
:101A20007A60FB7300237B61FFF742FF78617A687D
:101A3000B9687869FFF790FF024697F90F301146B1
:101A40001846FFF75FFF00BF1837BD4680BD80B561
:101A500082B000AF0346FB7197F907301846FFF7D5
:101A600035FF00BF0837BD4680BD80B582B000AFEE
:101A700078607868FFF7A2FF034618460837BD462E
:101A800080BD000080B48BB000AF78603960002367
:101A90007B6200233B6269E101227B6A02FA03F365
:101AA000FB613B681B68FA691340BB61BA69FB695B
:101AB0009A4240F058813B685B689A4A93425ED0F4
:101AC000984A934275D8984A934258D0964A93427E
:101AD0006FD8964A934252D0944A934269D8944A16
:101AE00093424CD0924A934263D8924A934246D052
:101AF000904A93425DD8122B2AD8122B59D801A2B2
:101B000052F823F07F1B0008591B00086B1B0008CC
:101B1000AD1B0008B31B0008B31B0008B31B000873
:101B2000B31B0008B31B0008B31B0008B31B00085D
:101B3000B31B0008B31B0008B31B0008B31B00084D
:101B4000B31B0008B31B0008611B0008751B0008CD
:101B5000794A934213D02CE03B68DB683B6229E072
:101B60003B68DB6804333B6224E03B68DB68083396
:101B70003B621FE03B68DB680C333B621AE03B686A
:101B80009B68002B02D104233B6213E03B689B68F7
:101B9000012B05D108233B627B68FA691A6109E0D1
:101BA00008233B627B68FA695A6103E000233B62C9
:101BB00000E000BFBB69FF2B01D87B6801E07B68B8
:101BC00004337B61BB69FF2B02D87B6A9B0002E078
:101BD0007B6A083B9B003B617B691A680F213B696C
:101BE00001FA03F3DB431A40396A3B6901FA03F354
:101BF0001A437B691A603B685B6803F08053002BD3
:101C000000F0B1804D4B9B694C4A43F00103936156
:101C10004A4B9B6903F00103BB60BB68484A7B6A7F
:101C20009B08023352F82330FB607B6A03F0030306
:101C30009B000F2202FA03F3DB43FA681340FB60B8
:101C40007B68404A934213D07B683F4A93420DD051
:101C50007B683E4A934207D07B683D4A934201D15C
:101C6000032306E0042304E0022302E0012300E052
:101C700000237A6A02F0030292009340FA68134349
:101C8000FB602F497B6A9B080233FA6841F82320E6
:101C90003B685B6803F48013002B06D02D4B9A68D9
:101CA0002C49BB6913438B6006E02A4B9A68BB69D9
:101CB000DB43284913408B603B685B6803F40013E7
:101CC000002B06D0234BDA682249BB691343CB6053
:101CD00006E0204BDA68BB69DB431E491340CB604A
:101CE0003B685B6803F40033002B06D0194B5A683D
:101CF0001849BB6913434B6006E0164B5A68BB6931
:101D0000DB43144913404B603B685B6803F480334A
:101D1000002B21D00F4B1A680E49BB6913430B608F
:101D200021E000BF0000321000003110000022103E
:101D300000002110000012100000111000100240DD
:101D40000000014000080140000C0140001001406B
:101D500000140140000401400B4B1A68BB69DB43CF
:101D6000094913400B607B6A01337B623B681A6848
:101D70007B6A22FA03F3002B7FF48EAE00BF00BF14
:101D80002C37BD4680BC70470004014080B483B04E
:101D900000AF78600B467B8013467B707B78002B0E
:101DA00003D07A887B681A6103E07B881A047B6819
:101DB0001A6100BF0C37BD4680BC704780B485B047
:101DC00000AF78600B467B807B68DB68FB607A88BD
:101DD000FB6813401A04FB68D9437B880B401A4305
:101DE0007B681A6100BF1437BD4680BC7047000095
:101DF00080B582B000AF0346FB80084B5A69FB8870
:101E00001340002B06D0054AFB885361FB88184617
:101E1000FFF770FA00BF0837BD4680BD00040140DF
:101E200080B586B000AF78607B68002B01D10123BC
:101E300072E27B681B6803F00103002B00F08780CF
:101E4000924B5B6803F00C03042B0CD08F4B5B6848
:101E500003F00C03082B12D18C4B5B6803F4803326
:101E6000B3F5803F0BD1894B1B6803F40033002B83
:101E70006CD07B685B68002B68D101234CE27B68E7
:101E80005B68B3F5803F06D1804B1B687F4A43F403
:101E9000803313602EE07B685B68002B0CD17B4B9A
:101EA0001B687A4A23F480331360784B1B68774AA7
:101EB00023F4802313601DE07B685B68B3F5A02FDB
:101EC0000CD1724B1B68714A43F4802313606F4B33
:101ED0001B686E4A43F4803313600BE06B4B1B6846
:101EE0006A4A23F480331360684B1B68674A23F403
:101EF000802313607B685B68002B13D0FFF7AAFC7C
:101F0000386108E0FFF7A6FC02463B69D31A642B50
:101F100001D9032300E25D4B1B6803F40033002B5F
:101F2000F0D014E0FFF796FC386108E0FFF792FC70
:101F300002463B69D31A642B01D90323ECE1534BCE
:101F40001B6803F40033002BF0D100E000BF7B6876
:101F50001B6803F00203002B63D04C4B5B6803F05B
:101F60000C03002B0BD0494B5B6803F00C03082BD0
:101F70001CD1464B5B6803F48033002B16D1434BD6
:101F80001B6803F00203002B05D07B681B69012B43
:101F900001D00123C0E13D4B1B6823F0F8027B68B0
:101FA0005B69DB00394913430B603AE07B681B69CE
:101FB000002B20D0364B01221A60FFF74BFC386112
:101FC00008E0FFF747FC02463B69D31A022B01D910
:101FD0000323A1E12D4B1B6803F00203002BF0D07B
:101FE0002A4B1B6823F0F8027B685B69DB002749FA
:101FF00013430B6015E0264B00221A60FFF72AFC02
:10200000386108E0FFF726FC02463B69D31A022B31
:1020100001D9032380E11D4B1B6803F00203002B51
:10202000F0D17B681B6803F00803002B3AD07B6873
:102030009B69002B19D0174B01221A60FFF70AFC8D
:10204000386108E0FFF706FC02463B69D31A022B11
:1020500001D9032360E10D4B5B6A03F00203002BFF
:10206000F0D0012000F0CEFA1CE00A4B00221A60EA
:10207000FFF7F0FB38610FE0FFF7ECFB02463B692E
:10208000D31A022B08D9032346E100BF00100240F7
:102090000000424280044242924B5B6A03F002031A
:1020A000002BE9D17B681B6803F00403002B00F0D0
:1020B000A6800023FB758B4BDB6903F08053002B5C
:1020C0000DD1884BDB69874A43F08053D361854B40
:1020D000DB6903F08053BB60BB680123FB75824B57
:1020E0001B6803F48073002B18D17F4B1B687E4A5A
:1020F00043F480731360FFF7ADFB386108E0FFF72E
:10210000A9FB02463B69D31A642B01D9032303E1DF
:10211000754B1B6803F48073002BF0D07B68DB6881
:10212000012B06D16F4B1B6A6E4A43F00103136209
:102130002DE07B68DB68002B0CD16A4B1B6A694A77
:1021400023F001031362674B1B6A664A23F0040302
:1021500013621CE07B68DB68052B0CD1614B1B6AAA
:10216000604A43F0040313625E4B1B6A5D4A43F00E
:10217000010313620BE05B4B1B6A5A4A23F0010315
:102180001362584B1B6A574A23F0040313627B689F
:10219000DB68002B15D0FFF75DFB38610AE0FFF725
:1021A00059FB02463B69D31A41F28832934201D966
:1021B0000323B1E04B4B1B6A03F00203002BEED06C
:1021C00014E0FFF747FB38610AE0FFF743FB0246E4
:1021D0003B69D31A41F28832934201D903239BE031
:1021E000404B1B6A03F00203002BEED1FB7D012B59
:1021F00005D13C4BDB693B4A23F08053D3617B68BC
:10220000DB69002B00F08780364B5B6803F00C0322
:10221000082B61D07B68DB69022B46D1334B00224F
:102220001A60FFF717FB386108E0FFF713FB02465F
:102230003B69D31A022B01D903236DE0294B1B689C
:1022400003F00073002BF0D17B681B6AB3F5803F6D
:1022500008D1244B5B6823F400327B689B682149DA
:1022600013434B601F4B5B6823F474127B68196A3D
:102270007B685B6A0B431B4913434B601B4B01227A
:102280001A60FFF7E7FA386108E0FFF7E3FA024661
:102290003B69D31A022B01D903233DE0114B1B6884
:1022A00003F00073002BF0D035E0104B00221A60D1
:1022B000FFF7D0FA386108E0FFF7CCFA02463B6935
:1022C000D31A022B01D9032326E0064B1B6803F027
:1022D0000073002BF0D11EE07B68DB69012B07D176
:1022E000012319E0001002400070004060004242EB
:1022F0000B4B5B68FB60FB6803F480327B681B6AF6
:102300009A4206D1FB6803F470127B685B6A9A42BA
:1023100001D0012300E0002318461837BD4680BDD8
:102320000010024080B584B000AF786039607B68EF
:10233000002B01D10123D0E06A4B1B6803F0070397
:102340003A689A4210D9674B1B6823F00702654927
:102350003B6813430B60634B1B6803F007033A6849
:102360009A4201D00123B8E07B681B6803F00203A6
:10237000002B20D07B681B6803F00403002B05D0E2
:10238000594B5B68584A43F4E06353607B681B68B1
:1023900003F00803002B05D0534B5B68524A43F40B
:1023A00060535360504B5B6823F0F0027B689B687E
:1023B0004D4913434B607B681B6803F00103002BFE
:1023C00040D07B685B68012B07D1474B1B6803F447
:1023D0000033002B15D101237FE07B685B68022B63
:1023E00007D1414B1B6803F00073002B09D1012377
:1023F00073E03D4B1B6803F00203002B01D1012366
:102400006BE0394B5B6823F003027B685B683649FD
:1024100013434B60FFF71EFAF8600AE0FFF71AFA61
:102420000246FB68D31A41F28832934201D9032352
:1024300053E02D4B5B6803F00C027B685B689B00EC
:102440009A42EBD1274B1B6803F007033A689A4284
:1024500010D2244B1B6823F0070222493B68134328
:102460000B60204B1B6803F007033A689A4201D0C7
:10247000012332E07B681B6803F00403002B08D0C3
:10248000194B5B6823F4E0627B68DB6816491343F1
:102490004B607B681B6803F00803002B09D0124BCC
:1024A0005B6823F460527B681B69DB000E491343B1
:1024B0004B6000F021F802460B4B5B681B0903F0F0
:1024C0000F030A49CB5C22FA03F3094A1360094B54
:1024D0001B681846FFF77CF9002318461037BD46E5
:1024E00080BD00BF0020024000100240EC620008E6
:1024F000040000200800002080B487B000AF002353
:10250000FB600023BB6000237B6100237B60002312
:102510003B611E4B5B68FB60FB6803F00C03042B04
:1025200002D0082B03D027E0194B3B6127E0FB6862
:102530009B0C03F00F03174AD35C7B60FB6803F42A
:102540008033002B10D0114B5B685B0C03F0010350
:10255000114AD35CBB607B680D4A03FB02F2BB6887
:10256000B2FBF3F37B6104E07B680C4A02FB03F3EC
:102570007B617B693B6102E0054B3B6100BF3B69CE
:1025800018461C37BD4680BC704700BF0010024093
:1025900000127A00046300081463000800093D007B
:1025A00080B400AF024B1B681846BD4680BC704724
:1025B0000400002080B500AFFFF7F2FF0246054B94
:1025C0005B681B0A03F007030349CB5C22FA03F3A1
:1025D000184680BD00100240FC62000880B500AFC4
:1025E000FFF7DEFF0246054B5B68DB0A03F00703DB
:1025F0000349CB5C22FA03F3184680BD0010024069
:10260000FC62000880B485B000AF78600A4B1B689C
:102610000A4AA2FB03235B0A7A6802FB03F3FB600E
:1026200000BFFB685A1EFA60002BF9D100BF00BF43
:102630001437BD4680BC704704000020D34D6210A3
:1026400080B582B000AF78607B68002B01D1012398
:1026500041E07B6893F83D30DBB2002B06D17B680C
:10266000002283F83C207868FEF7CAFE7B680222CD
:1026700083F83D207B681A687B680433194610464E
:1026800000F018FC7B68012283F846207B68012259
:1026900083F83E207B68012283F83F207B6801227B
:1026A00083F840207B68012283F841207B68012267
:1026B00083F842207B68012283F843207B68012253
:1026C00083F844207B68012283F845207B6801223F
:1026D00083F83D20002318460837BD4680BD000022
:1026E00080B485B000AF78607B6893F83D30DBB292
:1026F000012B01D0012332E07B68022283F83D20C8
:102700007B681B68184A93420ED07B681B68B3F144
:10271000804F09D07B681B68144A934204D07B68C1
:102720001B68134A934211D17B681B689B6803F0B6
:102730000703FB60FB68062B10D07B681B681A68D8
:102740007B681B6842F001021A6007E07B681B6827
:102750001A687B681B6842F001021A600023184661
:102760001437BD4680BC7047002C01400004004077
:102770000008004080B582B000AF78607B68002B15
:1027800001D1012341E07B6893F83D30DBB2002B9F
:1027900006D17B68002283F83C20786800F039F885
:1027A0007B68022283F83D207B681A687B680433CB
:1027B0001946104600F07EFB7B68012283F8462014
:1027C0007B68012283F83E207B68012283F83F204A
:1027D0007B68012283F840207B68012283F8412036
:1027E0007B68012283F842207B68012283F8432022
:1027F0007B68012283F844207B68012283F845200E
:102800007B68012283F83D20002318460837BD4627
:1028100080BD80B483B000AF786000BF0C37BD4688
:1028200080BC704780B584B000AF786039603B6889
:10283000002B09D17B6893F83E30DBB2012B14BF2B
:1028400001230023DBB222E03B68042B09D17B6823
:1028500093F83F30DBB2012B14BF01230023DBB21E
:1028600015E03B68082B09D17B6893F84030DBB258
:10287000012B14BF01230023DBB208E07B6893F82F
:102880004130DBB2012B14BF01230023DBB2002B4C
:1028900001D001235EE03B68002B04D17B6802225B
:1028A00083F83E2013E03B68042B04D17B680222AE
:1028B00083F83F200BE03B68082B04D17B680222A1
:1028C00083F8402003E07B68022283F841207B6884
:1028D0001B6801223968184600F078FD7B681B6888
:1028E0001E4A934207D17B681B685A6C7B681B6841
:1028F00042F400425A647B681B68184A93420ED027
:102900007B681B68B3F1804F09D07B681B68144A51
:10291000934204D07B681B68124A934211D17B68B2
:102920001B689B6803F00703FB60FB68062B10D055
:102930007B681B681A687B681B6842F001021A609A
:1029400007E07B681B681A687B681B6842F001021D
:102950001A60002318461037BD4680BD002C014088
:10296000000400400008004080B584B000AF7860EB
:102970007B681B68DB68FB607B681B681B69BB604E
:10298000BB6803F00203002B20D0FB6803F00203B6
:10299000002B1BD07B681B686FF002021A617B68FA
:1029A00001221A777B681B689B6903F00303002BE5
:1029B00003D0786800F063FA05E0786800F056FA12
:1029C000786800F065FA7B6800221A77BB6803F02C
:1029D0000403002B20D0FB6803F00403002B1BD062
:1029E0007B681B686FF004021A617B6802221A7709
:1029F0007B681B689B6903F44073002B03D07868E5
:102A000000F03DFA05E0786800F030FA786800F0F0
:102A10003FFA7B6800221A77BB6803F00803002B9B
:102A200020D0FB6803F00803002B1BD07B681B68D9
:102A30006FF008021A617B6804221A777B681B68B2
:102A4000DB6903F00303002B03D0786800F017FA6A
:102A500005E0786800F00AFA786800F019FA7B68F7
:102A600000221A77BB6803F01003002B20D0FB680C
:102A700003F01003002B1BD07B681B686FF0100263
:102A80001A617B6808221A777B681B68DB6903F48C
:102A90004073002B03D0786800F0F1F905E0786806
:102AA00000F0E4F9786800F0F3F97B6800221A7707
:102AB000BB6803F00103002B0CD0FB6803F001039B
:102AC000002B07D07B681B686FF001021A617868E1
:102AD00000F0C3F9BB6803F08003002B0CD0FB6847
:102AE00003F08003002B07D07B681B686FF0800227
:102AF0001A61786800F0F5FCBB6803F04003002B16
:102B00000CD0FB6803F04003002B07D07B681B68E8
:102B10006FF040021A61786800F0C3F9BB6803F0F7
:102B20002003002B0CD0FB6803F02003002B07D000
:102B30007B681B686FF020021A61786800F0C8FC9F
:102B400000BF1037BD4680BD80B586B000AFF860CD
:102B5000B9607A600023FB75FB6893F83C30012B69
:102B600001D10223AEE0FB68012283F83C207B68A0
:102B70000C2B00F29F8001A252F823F0B12B000829
:102B8000B52C0008B52C0008B52C0008F12B000866
:102B9000B52C0008B52C0008B52C0008332C000813
:102BA000B52C0008B52C0008B52C0008732C0008C3
:102BB000FB681B68B968184600F0EAF9FB681B68F7
:102BC0009A69FB681B6842F008029A61FB681B68FF
:102BD0009A69FB681B6822F004029A61FB681B6813
:102BE0009969BB681A69FB681B680A439A6164E0CB
:102BF000FB681B68B968184600F030FAFB681B6870
:102C00009A69FB681B6842F400629A61FB681B6862
:102C10009A69FB681B6822F480629A61FB681B68F2
:102C20009969BB681B691A02FB681B680A439A61B1
:102C300043E0FB681B68B968184600F079FAFB6846
:102C40001B68DA69FB681B6842F00802DA61FB68FE
:102C50001B68DA69FB681B6822F00402DA61FB6812
:102C60001B68D969BB681A69FB681B680A43DA618B
:102C700023E0FB681B68B968184600F0C3FAFB68DC
:102C80001B68DA69FB681B6842F40062DA61FB6862
:102C90001B68DA69FB681B6822F48062DA61FB68F2
:102CA0001B68D969BB681B691A02FB681B680A4369
:102CB000DA6102E00123FB7500BFFB68002283F8A4
:102CC0003C20FB7D18461837BD4680BD80B584B0DA
:102CD00000AF786039600023FB737B6893F83C3069
:102CE000012B01D10223B4E07B68012283F83C2050
:102CF0007B68022283F83D207B681B689B68BB6071
:102D0000BB6823F07703BB60BB6823F47F43BB60E1
:102D10007B681B68BA689A603B681B68B3F5005F04
:102D20003ED0B3F5005F00F28780B3F5805F00F01E
:102D30008680B3F5805F7FD8702B1AD0702B7BD83C
:102D4000602B50D0602B77D8502B3CD0502B73D8B1
:102D5000402B58D0402B6FD8302B64D0302B6BD801
:102D6000202B60D0202B67D8002B5CD0102B5AD0A2
:102D700062E07B6818683B6899683B685A683B6802
:102D8000DB6800F004FB7B681B689B68BB60BB686A
:102D900043F07703BB607B681B68BA689A604FE0BA
:102DA0007B6818683B6899683B685A683B68DB68D1
:102DB00000F0EDFA7B681B689A687B681B6842F438
:102DC00080429A603CE07B6818683B6859683B68C1
:102DD000DB681A4600F064FA7B681B6850211846CD
:102DE00000F0BBFA2CE07B6818683B6859683B68C8
:102DF000DB681A4600F082FA7B681B68602118467F
:102E000000F0ABFA1CE07B6818683B6859683B68C7
:102E1000DB681A4600F044FA7B681B6840211846BC
:102E200000F09BFA0CE07B681A683B681B68194647
:102E3000104600F092FA03E00123FB7300E000BFAC
:102E40007B68012283F83D207B68002283F83C20C8
:102E5000FB7B18461037BD4680BD80B483B000AF01
:102E6000786000BF0C37BD4680BC704780B483B02B
:102E700000AF786000BF0C37BD4680BC704780B49F
:102E800083B000AF786000BF0C37BD4680BC704790
:102E900080B483B000AF786000BF0C37BD4680BC03
:102EA000704780B483B000AF786000BF0C37BD4678
:102EB00080BC704780B485B000AF786039607B68B3
:102EC0001B68FB607B682F4A93420BD07B68B3F191
:102ED000804F07D07B682C4A934203D07B682B4AF3
:102EE000934208D1FB6823F07003FB603B685B688A
:102EF000FA681343FB607B68224A93420BD07B68DD
:102F0000B3F1804F07D07B681F4A934203D07B68A0
:102F10001E4A934208D1FB6823F44073FB603B6870
:102F2000DB68FA681343FB60FB6823F080023B68B0
:102F30005B691343FB607B68FA681A603B689A68B8
:102F40007B68DA623B681A687B689A627B680D4A24
:102F5000934203D13B681A697B681A637B6801223C
:102F60005A617B681B6903F00103002B05D07B6865
:102F70001B6923F001027B681A6100BF1437BD464C
:102F800080BC7047002C0140000400400008004055
:102F900080B487B000AF786039607B681B6A7B6162
:102FA0007B681B6A23F001027B681A627B685B689E
:102FB0003B617B689B69FB60FB6823F07003FB60EF
:102FC000FB6823F00303FB603B681B68FA6813434C
:102FD000FB607B6923F002037B613B689B687A6935
:102FE00013437B617B681C4A93420CD17B6923F0BD
:102FF00008037B613B68DB687A6913437B617B690B
:1030000023F004037B617B68134A934211D13B692F
:1030100023F480733B613B6923F400733B613B689D
:103020005B693A6913433B613B689B693A691343A7
:103030003B617B683A695A607B68FA689A613B68D1
:103040005A687B685A637B687A691A6200BF1C37CA
:10305000BD4680BC704700BF002C014080B487B0E3
:1030600000AF786039607B681B6A7B617B681B6A94
:1030700023F010027B681A627B685B683B617B68A7
:103080009B69FB60FB6823F4E043FB60FB6823F46F
:103090004073FB603B681B681B02FA681343FB60CC
:1030A0007B6923F020037B613B689B681B017A6985
:1030B00013437B617B681D4A93420DD17B6923F0EA
:1030C00080037B613B68DB681B017A6913437B618A
:1030D0007B6923F040037B617B68144A934213D1E0
:1030E0003B6923F480633B613B6923F400633B61EC
:1030F0003B685B699B003A6913433B613B689B6992
:103100009B003A6913433B617B683A695A607B686C
:10311000FA689A613B685A687B689A637B687A6947
:103120001A6200BF1C37BD4680BC7047002C0140AE
:1031300080B487B000AF786039607B681B6A7B61C0
:103140007B681B6A23F480727B681A627B685B6809
:103150003B617B68DB69FB60FB6823F07003FB600D
:10316000FB6823F00303FB603B681B68FA681343AA
:10317000FB607B6923F400737B613B689B681B02E7
:103180007A6913437B617B681D4A93420DD17B6949
:1031900023F400637B613B68DB681B027A6913439D
:1031A0007B617B6923F480637B617B68144A934273
:1031B00013D13B6923F480533B613B6923F40053F3
:1031C0003B613B685B691B013A6913433B613B68A8
:1031D0009B691B013A6913433B617B683A695A60FA
:1031E0007B68FA68DA613B685A687B68DA637B68F7
:1031F0007A691A6200BF1C37BD4680BC704700BFA9
:10320000002C014080B487B000AF786039607B68E3
:103210001B6A3B617B681B6A23F480527B681A62DD
:103220007B685B687B617B68DB69FB60FB6823F420
:10323000E043FB60FB6823F44073FB603B681B6862
:103240001B02FA681343FB603B6923F400533B61A4
:103250003B689B681B033A6913433B617B680F4AD9
:10326000934209D17B6923F480437B613B685B69AE
:103270009B017A6913437B617B687A695A607B683A
:10328000FA68DA613B685A687B681A647B683A6955
:103290001A6200BF1C37BD4680BC7047002C01403D
:1032A00080B487B000AFF860B9607A60FB681B6AD1
:1032B0007B61FB681B6A23F00102FB681A62FB68F2
:1032C0009B693B613B6923F0F0033B617B681B0119
:1032D0003A6913433B617B6923F00A037B617A6996
:1032E000BB6813437B61FB683A699A61FB687A6942
:1032F0001A6200BF1C37BD4680BC704780B487B0DF
:1033000000AFF860B9607A60FB681B6A7B61FB689C
:103310001B6A23F01002FB681A62FB689B693B6121
:103320003B6923F470433B617B681B033A69134399
:103330003B617B6923F0A0037B61BB681B017A6959
:1033400013437B61FB683A699A61FB687A691A6288
:1033500000BF1C37BD4680BC704780B485B000AF4D
:10336000786039607B689B68FB60FB6823F07003C2
:10337000FB603A68FB68134343F00703FB607B681C
:10338000FA689A6000BF1437BD4680BC704780B4AD
:1033900087B000AFF860B9607A603B60FB689B68FB
:1033A0007B617B6923F47F437B613B681A027B6806
:1033B0001A43BB6813437A6913437B61FB687A69DC
:1033C0009A6000BF1C37BD4680BC704780B487B090
:1033D00000AFF860B9607A60BB6803F01F03012298
:1033E00002FA03F37B61FB681A6A7B69DB431A40CC
:1033F000FB681A62FB681A6ABB6803F01F037968EE
:1034000001FA03F31A43FB681A6200BF1C37BD467A
:1034100080BC704780B485B000AF786039607B684D
:1034200093F83C30012B01D1022346E07B68012256
:1034300083F83C207B68022283F83D207B681B6870
:103440005B68FB607B681B689B68BB60FB6823F064
:103450007003FB603B681B68FA681343FB607B6882
:103460001B68FA685A607B681B68164A93420ED044
:103470007B681B68B3F1804F09D07B681B68124AD8
:10348000934204D07B681B68104A93420CD1BB68FE
:1034900023F08003BB603B685B68BA681343BB6082
:1034A0007B681B68BA689A607B68012283F83D20BC
:1034B0007B68002283F83C20002318461437BD4661
:1034C00080BC7047002C0140000400400008004010
:1034D00080B483B000AF786000BF0C37BD4680BCBD
:1034E000704780B483B000AF786000BF0C37BD4632
:1034F00080BC704780B582B000AF78607B68002BDD
:1035000001D101234AE07B6893F84130DBB2002B04
:1035100006D17B68002283F840207868FDF7D8FF49
:103520007B68242283F841207B681B68DA687B680B
:103530001B6822F40052DA60786800F079F97B6841
:103540001B681A697B681B6822F490421A617B68C9
:103550001B685A697B681B6822F022025A617B68EB
:103560001B685A697B681B6842F008025A617B68D5
:103570001B68DA687B681B6842F40052DA607B687B
:1035800000225A647B68202283F841207B68202235
:1035900083F842207B6800225A63002318460837CC
:1035A000BD4680BD80B58AB002AFF860B9603B60AF
:1035B0001346FB8000237B61FB6893F84130DBB24C
:1035C000202B75D1BB68002B02D0FB88002B01D1CA
:1035D00001236EE0FB6800225A64FB68212283F815
:1035E0004120FEF737F97861FB68FA889A84FB6816
:1035F000FA88DA84FB689B68B3F5805F08D1FB68C2
:103600001B69002B04D10023FB61BB68BB6103E095
:10361000BB68FB610023BB612EE03B6800937B69C4
:1036200000228021F86800F048F80346002B05D0FE
:10363000FB68202283F8412003233AE0FB69002B3A
:103640000BD1BB691B881A46FB681B68C2F30802D2
:103650005A60BB690233BB6107E0FB691A78FB68FB
:103660001B685A60FB690133FB61FB68DB8C9BB212
:10367000013B9AB2FB68DA84FB68DB8C9BB2002BBF
:10368000CBD13B6800937B6900224021F86800F0B1
:1036900014F80346002B05D0FB68202283F8412054
:1036A000032306E0FB68202283F84120002300E08A
:1036B000022318462037BD4680BD80B586B000AFD6
:1036C000F860B9603B601346FB713BE03B6AB3F1C5
:1036D000FF3F37D0FEF7BEF802463B68D31A3A6A7E
:1036E0009A4202D33B6A002B01D103233AE0FB68E4
:1036F0001B68DB6803F00403002B23D0BB68802B1E
:1037000020D0BB68402B1DD0FB681B681B6803F0F2
:103710000803082B16D100237B61FB681B681B681C
:103720007B61FB681B685B687B617B69F86800F004
:103730001DF8FB6808225A64FB68002283F84020C9
:1037400001230FE0FB681B681A68BB681340BA6866
:103750009A420CBF01230023DBB21A46FB799A423E
:10376000B4D0002318461837BD4680BD80B495B04C
:1037700000AF78607B681B680C337B637B6B53E81E
:10378000003F3B633B6B23F49073FB647B681B68D7
:103790000C33FA6C3A64FB63F96B3A6C41E8002332
:1037A000BB63BB6B002BE5D17B681B6814333B62AA
:1037B0003B6A53E8003FFB61FB6923F00103BB64F4
:1037C0007B681B681433BA6CFA62BB62B96AFA6A26
:1037D00041E800237B627B6A002BE5D17B681B6B91
:1037E000012B19D17B681B680C33FB60FB6853E825
:1037F000003FBB60BB6823F010037B647B681B68E1
:103800000C337A6CBA617B617969BA6941E800234B
:103810003B613B69002BE5D17B68202283F8422085
:103820007B6800221A6300BF5437BD4680BC7047D6
:1038300080B584B000AF78607B681B681B6923F497
:1038400040517B68DA687B681B680A431A617B68B1
:103850009A687B681B691A437B685B691343BB608A
:103860007B681B68DB6823F4B05323F00C037A6891
:103870001268B9680B43D3607B681B685B6923F4EB
:1038800040717B689A697B681B680A435A617B6850
:103890001B682C4A934203D1FEF7A0FEF86002E0B9
:1038A000FEF788FEF860FA6813469B0013449A00FE
:1038B0001A447B685B689B00B2FBF3F3224AA2FBCD
:1038C00003235B091901FA6813469B0013449A000D
:1038D0001A447B685B689B00B2FBF3F21A4BA3FBB4
:1038E00002035B09642000FB03F3D31A1B0132338C
:1038F000154AA2FB03235B0903F0F0031944FA689D
:1039000013469B0013449A001A447B685B689B0033
:10391000B2FBF3F20C4BA3FB02035B09642000FB38
:1039200003F3D31A1B013233074AA2FB03235B09BB
:1039300003F00F027B681B680A449A6000BF1037CF
:10394000BD4680BD003801401F85EB51002B2DE99D
:10395000F0471D46BBBF03F100431D4600232D2346
:1039600088B01446B8BF1446129A109E1370149B68
:10397000DDF84CA023F02008B8F1460F05D0B8F1CF
:10398000450F00D10136022300E0032307AA049269
:1039900006AACDE902A2CDE9003622462B4600F068
:1039A00067FEB8F1470F074619D1119BDB070ED50B
:1039B00000EB06090022002320462946FCF7F4FF0D
:1039C00008B1CDF81C903022079B4B451ED33846DA
:1039D000079B159ADB1B136008B0BDE8F087B8F1B0
:1039E000460F00EB0609E5D10378302B0AD10022FF
:1039F000002320462946FCF7D7FF18B9C6F1010677
:103A0000CAF80060DAF800309944D3E7591C0791EE
:103A10001A70D9E7F7B50029B6BF2D232B234942E9
:103A200009290270437029DD0DF1070425460A2794
:103A3000B1FBF7F6224607FB1613303302F8013CC0
:103A40000B46632B314604F1FF34F1DC3031931E19
:103A500004F8011C1C46411CAB420AD30DF10903BA
:103A60009B1AA54238BF0023821C1344181A03B0C6
:103A7000F0BD13F8016B01F8016FEDE73023303131
:103A80008370C170031DF1E72DE9F04F91B00C4632
:103A9000DDF8688016461F46054600F0DBFC03682B
:103AA00018460A93FCF754FB00230E93D8F8003015
:103AB00094F818A0073323F00703F3E80212D4F8B0
:103AC00000B0CDE90812C8F8003013460A46C4E930
:103AD0001223DDE9088323F000490B904FF0FF32F9
:103AE000404649469B4BFCF791FF70BB4FF0FF32BD
:103AF00040464946974BFCF76BFF30BBDDE90801B8
:103B000000220023FCF75AFF10B12D2384F8433024
:103B1000914A924BBAF1470F8CBF904698460323C7
:103B20004FF0000923612BF0040323603346214644
:103B3000284600970FAA00F0D3F9013040F08F809B
:103B40004FF0FF3011B0BDE8F08FDDE908231046DB
:103B50001946FCF75BFF40B1099B814A002BBCBFB3
:103B60002D2384F843307F4BD4E763680AF0DF09E4
:103B70005A1C3ED10623636000224BF4806323600D
:103B800006920EAACDE904A20DAA03920DF133020A
:103B9000CDE90132636828460093DDE90823FFF789
:103BA000D5FEB9F1470F80460D9929D1C81C02DB1B
:103BB00063688B4241DAAAF1020A5FFA8AFA524636
:103BC000013904F150000D91FFF724FF0E9A814650
:103BD0001318012A236102DC2268D20701D50133C0
:103BE00023619DF83330002BA0D02D2384F843307F
:103BF0009CE7B9F1470FBFD1002BBDD10123BAE734
:103C0000BAF1650FDBD9BAF1660F18D100296368E4
:103C10000BDD216113B92268D00702D501330B44B3
:103C200023614FF00009A165DBE713B92268D207D1
:103C300001D50233F4E70123F2E74FF0670A0E9B48
:103C40008B4205DC23682161D807EAD54B1CE7E7E6
:103C50000029CCBF0122C1F102021344E0E723682E
:103C60005A0507D42369424631462846B8470130F1
:103C70002BD165E7BAF1650F40F2DC80D4E912017F
:103C800000220023FCF790FE002833D001233146A8
:103C90002846354AB84701303FF452AFDDE90D38C8
:103CA000434502DB2368D8070FD5DDE90A233146F7
:103CB0002846B84701303FF443AF4FF0000908F100
:103CC000FF3804F11A0AC84509DC23689B0700F194
:103CD0000281E0680F9B9842B8BF184632E7012383
:103CE000524631462846B84701303FF429AF09F122
:103CF0000109E8E70D9B002B38DC012331462846FB
:103D0000194AB84701303FF41BAFDDE90D3959EAD4
:103D1000030302D12368D907D7D5DDE90A23314649
:103D20002846B84701303FF40BAF4FF0000A04F1CA
:103D30001A0B0D9B5B42534501DC4B4693E7012375
:103D40005A4631462846B84701303FF4F9AE0AF1E9
:103D5000010AEEE7FFFFEF7F1A6300081663000811
:103D6000226300081E63000826630008A36DDDF8C7
:103D700038A05345A8BF5346002B994636DC4FF078
:103D8000000B29EAE97904F11A02A36D0893A3EB69
:103D900009035B4531DC0D9B9A453ADC2368DA0761
:103DA00037D40D9BAAEB0309089BAAEB03039945A3
:103DB000A8BF9946B9F1000F33DC4FF0000829EA9B
:103DC000E97904F11A0B0D9BAAEB0303A3EB09039A
:103DD00043457FF77AAF01235A4631462846B84714
:103DE00001303FF4ADAE08F10108ECE74246314640
:103DF0002846B8470130C2D1A2E601233146284601
:103E00000892B84701303FF49BAE089A0BF1010BC2
:103E1000BBE73146DDE90A232846B8470130C0D167
:103E20008EE6089A4B46314628464244B847013050
:103E3000C3D185E6DDF838A0BAF1010F01DCDB075C
:103E400036D50123424631462846B84701303FF473
:103E500077AEDDE90A2331462846B84701303FF402
:103E60006FAED4E91201002200230AF1FF3AFCF7F9
:103E70009BFDC0B9534608F1010231462846B847B8
:103E800001300CD15CE601235A4631462846B8473A
:103E900001303FF455AE08F10108D045F3DB4B4645
:103EA00004F15002E0E64FF0000804F11A0BF4E7C9
:103EB00001234246E1E701234A4631462846B847F6
:103EC00001303FF43DAE08F10108E3680F995B1A39
:103ED0004345F0DCFDE64FF0000804F11909F4E772
:103EE0002DE9F047164698468A680B6907469342C3
:103EF000B8BF1346336091F843200C46DDF820909C
:103F00000AB1013333602368990642BF3368023334
:103F10003360256815F0060506D104F1190AE36837
:103F200032689B1AAB422BDC94F843302268003B8A
:103F300018BF0123920630D44146384604F14302AB
:103F4000C847013023D02368226903F00603042BFD
:103F500014BF002533684FF0000608BFE56804F180
:103F60001A0408BFED1A54F8123C08BF25EAE5759B
:103F70009342C4BF9B1AED18B5421AD1002008E045
:103F80000123524641463846C847013003D14FF01D
:103F9000FF30BDE8F0870135C1E73020E11881F836
:103FA00043005A1C94F845102244023382F843100F
:103FB000C2E70123224641463846C8470130E6D0D1
:103FC0000136D9E72DE9F0430D7E85B0782D904676
:103FD00007460C4699460C9E01F1430207D8622D14
:103FE0000AD8002D00F0D780582D00F0BC8004F1D5
:103FF000420684F842503BE0A5F16303152BF6D846
:1040000001A151F823F000BF61400008754000088D
:10401000EF3F0008EF3F0008EF3F0008EF3F0008C8
:1040200075400008EF3F0008EF3F0008EF3F000831
:10403000EF3F00087D4100089F4000082F41000825
:10404000EF3F0008EF3F00089F410008EF3F0008E6
:104050009F400008EF3F0008EF3F0008374100088D
:1040600033681A1D1B68326004F1420684F842303E
:104070000123A1E033682068191D3160060601D5CF
:104080001D6803E04506FBD5B3F90050002D03DAA7
:104090002D236D4284F843300A235B4811E02168E8
:1040A0003368080653F8045B02D4490648BFADB232
:1040B0003360237E54486F2B5CD10823002184F8A1
:1040C00043106668002EA66005DB21682E4321F0B0
:1040D0000401216050D01646B5FBF3F103FB115CDF
:1040E00010F80CC006F801CDAC4663450D46F3D977
:1040F000082B0BD12368DB0708D523696168994237
:10410000DEBF302306F8013C06F1FF36921B226128
:10411000434621463846CDF8009003AAFFF7E0FE5B
:1041200001304ED14FF0FF3005B0BDE8F083236879
:1041300043F0200323607825344884F845502368F1
:10414000316813F0800F51F8045B03D113F0400F76
:1041500018BFADB23160D90744BF43F020032360DC
:104160001DB11023AAE72848E7E7236823F02003BE
:104170002360F6E70A23A1E71646B9E73368256806
:10418000181D616930602E061B6801D5196002E0B8
:104190006806FBD51980002316462361B8E733680B
:1041A00000211A1D32601E686268304600F0C9F9AD
:1041B00008B1801B606063682361002384F843308A
:1041C000A6E73246414638462369C8470130A9D0A0
:1041D00023689B0713D4E068039B9842B8BF184636
:1041E000A2E70123324641463846C847013099D0FC
:1041F0000135E36803995B1AAB42F2DCEBE700257B
:1042000004F11906F5E700BF2863000839630008C8
:10421000002310B50446C0E90033C0E904338360CD
:1042200081814366C2818361194608225C3000F0B7
:1042300009F90D4B246263620C4BA3620C4BE362E1
:104240000C4B23630C4B9C4206D003F16802944252
:1042500002D0D0339C4205D104F15800BDE8104093
:1042600000F06CB910BD00BFBD430008DF4300087B
:10427000174400083D440008E0020020024A0349B8
:10428000034800F06BB800BF10000020B55E0008C6
:104290002000002041680C4B10B59942044601D023
:1042A00001F008FEA168094B994202D0204601F0B6
:1042B00001FEE168064B994204D02046BDE810405B
:1042C00001F0F8BD10BD00BFE0020020480300204F
:1042D000B00300200C4B0D4A10B504211A600C48A5
:1042E0000022FFF795FF0A4B01221C46092103F12A
:1042F0006800FFF78DFF04F1D0000222BDE81040F6
:104300001221FFF785BF00BF180400207D4200087E
:10431000E0020020014800F012B900BF2104002093
:10432000014800F00DB900BF2104002010B504467B
:10433000FFF7F0FF236A1BB1BDE81040FFF7F0BFA5
:10434000044B2362044B1B68002BF5D1FFF7C2FF1F
:10435000F2E700BF95420008180400202DE9F84359
:104360000746884614460026D4E90195B9F10109AB
:1043700005D52468002CF7D13046BDE8F883AB8919
:10438000012B07D9B5F90E30013303D02946384641
:10439000C04706436835E9E70FB407B5064904ABE3
:1043A000086853F8042B8168019301F0F1FB03B016
:1043B0005DF804EB04B070471C00002010B50C46FB
:1043C000B1F90E1000F06CF80028ABBF636DA38943
:1043D0001B1823F48053ACBF6365A38110BD2DE986
:1043E000F0411F468B890546DB050C46164605D570
:1043F00002230022B1F90E1000F040F8A3893246E2
:1044000023F48053A38128463B46B4F90E10BDE83F
:10441000F04100F057B810B50C46B1F90E1000F09D
:104420002DF8B4F90C30421C0BBF23F4805343F435
:104430008053A381A38118BF606510BDB1F90E1030
:1044400000F00CB803460244934200D1704703F8D1
:10445000011BF9E7004870475C01002038B50023D4
:10446000054D044608462B60FDF709F9431C02D1AF
:104470002B6803B1236038BD1C04002038B5044606
:10448000084611460022054D2A601A46FDF71BF921
:10449000431C02D12B6803B1236038BD1C040020EB
:1044A00038B50446084611460022054D2A601A46D2
:1044B000FDF7ACF8431C02D12B6803B1236038BD73
:1044C0001C04002038B50446084611460022054D5C
:1044D0002A601A46FDF7B7F8431C02D12B6803B1D6
:1044E000236038BD1C040020014B1868704700BFD2
:1044F0001C00002070B500260C4D0D4B5B1B9C1062
:10450000A64209D1002601F0DDFE0A4D0A4B5B1BD5
:104510009C10A64205D170BD55F8043B9847013662
:10452000EEE755F8043B98470136F2E79466000839
:104530009466000894660008986600087047704703
:104540007047034610B5C9B202449342184601D1E0
:10455000002003E0047801338C42F6D110BD2DE930
:10456000F74F03690C690746A3427EDB013CA300B9
:1045700000F1140501F11408009305EB8403019385
:1045800058F8243055F8242001339A42B2FBF3F650
:1045900008EB84092ED34FF0000AC446AE46D3463A
:1045A0005CF8043B98B206FB00A01B0C020C06FB57
:1045B0000323DEF8002080B292B2121A5A44DEF8C9
:1045C00000004FEA134A9BB2C3EB224303EB1043B4
:1045D00092B242EA0342E1454FEA234B4EF8042BE4
:1045E000DED2009BEB582BB9019B043B9D421A463F
:1045F0002FD33C61384601F097F9002825DB294686
:10460000002058F8042BD1F800C01FFA82FE1FFAD0
:104610008CF3A3EB0E030344120CC2EB234202EB18
:104620001C429BB243EA0243C1454FEA224041F893
:10463000043BE6D255F8242005EB840322B9043B61
:104640009D421A460BD33C610136304603B0BDE8AB
:10465000F08F1268043B002ACBD1013CC6E71268F8
:10466000043B002AEFD1013CEAE70020EEE700001E
:104670002DE9F04F16461F46C26999B08146CDE933
:104680000E67259C82B9102000F020FE0246C9F872
:104690001C0020B9EF21A84BA84801F0E3FC00233F
:1046A000C0E901330360C360116859B10123526846
:1046B000484693404A608B6000F0FCFE0022D9F827
:1046C0001C301A60B7F10008B5BF01230023236036
:1046D00023609B4BBCBF28F00048CDF83C8033EAF8
:1046E00008031AD142F20F73249AC8F3130858EA48
:1046F0000608136000F07485269B53B9914B21E0A6
:10470000914B03930833269A1360039819B0BDE8C0
:10471000F08F8C4B03930333F5E7DDE90E34CDE9DD
:104720000A34DDE90A0100220023FCF73DF9824644
:1047300050B10123249A1360269B13B1834B269A10
:104740001360834B0393E0E716AB019317AB009321
:104750004846DDE90A2301F09BF95FEA1854169DEB
:1047600004907BD0DDE90A010B9BA4F2FF34C3F374
:10477000130343F07F5343F44013CDF850A0194680
:104780000022744BFBF7F0FC65A3D3E90023FBF791
:10479000A3FE65A3D3E90023FBF7E8FC0646204609
:1047A0000F46FBF72FFE62A3D3E90023FBF794FE2D
:1047B00002460B4630463946FBF7D8FC06460F4604
:1047C000FCF73AF900228046002330463946FCF7D0
:1047D000F5F848B14046FBF715FE32463B46FCF77C
:1047E000E3F808B908F1FF38B8F1160F53D8DDE93E
:1047F0000A01594B03EBC803D3E90023FCF7DEF8A9
:1048000000284AD0002308F1FF3811932D1B6B1E9E
:10481000099349BF00230027C5F101070993B8F1A7
:10482000000F3CDB099BCDF84080434409930023F3
:104830000C93229B092B64D8052BC4BF043B229305
:10484000229BC8BF0024A3F10203D8BF0124032B7D
:1048500000F28680DFE803F05153362B179C2C447E
:1048600004F23243202BC1BFC3F1400308FA03F81E
:1048700004F2124326FA03F3D6BFC3F1200348EA39
:10488000030006FA03F0FBF7ADFD0122A1F1F87376
:10489000013C149273E70123B7E71190B6E7C8F122
:1048A00000030C930023A7EB08071093C1E7012333
:1048B0000D93239B434408930133012B0593B8BF09
:1048C000012306E001230D93239B002B4BDD08936E
:1048D000059300210422D9F81C0002F114059D4221
:1048E00046D94160484600F0A7FD0390002842D118
:1048F000024640F2AF11194BCEE60023E3E7002356
:10490000D6E7012400230D9422934FF0FF330022B9
:104910000893059312232392DBE700BFAFF30080D7
:1049200061436F63A787D23FB3C8608B288AC63FB5
:10493000FB799F501344D33F576300086E63000810
:104940000000F07F536300084A63000827630008F3
:10495000266300080000F83FC0640008C663000832
:1049600001230D93D1E701231A4608930593D2E75B
:1049700001315200B1E7D9F81C30039A1A60059B47
:104980000E2B00F2A180002C00F09E80B8F1000FE9
:1049900036DD9F4B08F00F0203EBC20318F4807F53
:1049A0004FEA2815D3E900AB16D0DDE90A01994B8F
:1049B0000324D3E90823FBF7B9FECDE9060105F08E
:1049C0000F05944E75B9DDE9060152465B46FBF7CB
:1049D000ADFE82468B462DE0DDE90A34CDE9063492
:1049E0000224EEE7E90708D5D6E9002350465946E8
:1049F000FBF772FD82468B4601346D100836E1E705
:104A000000F0AD80DDE90A01C8F10005804B05F03A
:104A10000F0203EBC203D3E90023FBF75DFD022481
:104A200082468B4600237B4E2D11002D40F08C805A
:104A3000002BCED1119B002B00F095800022504618
:104A40005946754BFBF7BAFF002800F08C80059B98
:104A5000002B00F08880089B002B35DD08F1FF3328
:104A600050465946069300226C4BFBF735FD8246B3
:104A70008B46089E01342046FBF7C4FC52465B4639
:104A8000FBF72AFD0022664BFBF770FB0446A1F101
:104A90005075CDE91245002E69D100225046594685
:104AA000604BFBF761FB22462B4682468B46FBF7A9
:104AB000A3FF002840F0998222465046594605F14E
:104AC0000043FBF77BFF20BB179B002BC0F26581E7
:104AD000B8F10E0F00F361814D4B03EBC803D3E92E
:104AE00000AB239B002B80F2EF80059B002B00F393
:104AF000EB800ED100224B4B50465946FBF7ECFCA5
:104B000002460B46DDE90A01FBF762FF002800F0D0
:104B10006F8200252C46239B039EDB43069327468A
:104B200000242946484600F0C5FC002F00F0C28052
:104B30002CB1BC4203D02146484600F0BBFC3946AC
:104B4000484600F0B7FCB5E0EA0705D5D6E90023F2
:104B5000FBF7C2FC012301346D10083665E702241F
:104B6000DDE90AAB66E7059ECDF8188083E7284BA0
:104B700003EBC60353E902010D9B002B56D00246FE
:104B80000B4600202849FBF7D1FDDDE91223FBF796
:104B9000EBFA039BCDE912019D191E46594650467A
:104BA000FBF74AFF0446FBF72DFC02460B46504636
:104BB0005946FBF7D9FADDE91223303406F8014BE8
:104BC00082468B46FBF7FAFE002873D152465B46BD
:104BD00000201149FBF7C8FADDE91223FBF7EEFECE
:104BE000002840F0BB80AE423FF46EAFDDE9120119
:104BF00000220A4BFBF770FC0022CDE91201074BA3
:104C000050465946FBF768FC82468B46C6E700BF14
:104C1000C0640008986400080000F03F00002440D1
:104C200000001C40000014400000E03FDDE91223BA
:104C3000FBF752FC039BCDE912013344039D15930E
:104C400059465046FBF7F8FE0446FBF7DBFB0B46E4
:104C5000024659465046FBF787FA3034159B05F853
:104C6000014B9D4282468B4627D1DDE91201039B11
:104C700000221E44B54BFBF779FA02460B4650461C
:104C80005946FBF7B9FE002868D1DDE91223002060
:104C9000AE49FBF769FA02460B4650465946FBF708
:104CA0008DFE00283FF410AF334616F8012D302A50
:104CB000FAD01E46DDF818803EE00022A44BFBF738
:104CC0000BFC82468B46BBE70024039EA04D524658
:104CD000DDE90A015B46FBF729FDFBF7ADFE074660
:104CE000FBF790FB52465B46FBF7F6FB02460B4692
:104CF000DDE90A01FBF738FA07F1300C06F801CBC1
:104D0000DDF80CC0DDF814E0A6EB0C0CE64502461D
:104D10000B4633D1FBF72AFA52465B4604460D4652
:104D2000FBF76AFEC0B952465B4620462946FBF7B0
:104D30003BFE08B1FB070FD44846049900F0BAFBCC
:104D40000023249A337008F101031360269B002B83
:104D50003FF4DBAC1E60D8E4CDF8188033461E4625
:104D600013F8012D392A06D1039A9A42F7D1069AEF
:104D700001320692302201321A709BE722462B46FE
:104D8000FBF7AAFB02460B46CDE90A2300220023CB
:104D9000FBF70AFE00289AD0CEE70D9A002A00F011
:104DA000E380229A012A00F3C280149A002A00F0BC
:104DB000BA8003F233430C9D3E46099A01211A44FE
:104DC00048461F44099200F029FC044656B1099B4D
:104DD000002B07DDB342A8BF3346099AFF1AF61A23
:104DE000D31A09930C9B0BB30D9B002B00F0C380CF
:104DF000002D00F0BD8021462A46484600F0CCFC3C
:104E0000049A01460446484600F01EFC0499824676
:104E1000484600F04FFB0C9B5B1B0C9300F0AE80F0
:104E200051460C9A484600F0B7FC049001214846D0
:104E300000F0F4FB109B0546002B00F0D8811A46C9
:104E40000146484600F0A8FC229B0546012B00F3D2
:104E50009D800E9B002B40F094800F9BC3F31303A7
:104E6000002B40F08E800F9B23F000431B0D1B0591
:104E7000002B00F089804FF0010A099B01370133B4
:104E80000993109B002B00F0B8812B6905EB83037D
:104E9000186900F077FBC0F12000099B184410F05E
:104EA0001F007ED0C0F12003042B72DD099BC0F1EE
:104EB0001C000344074406440993002F05DD3A46CD
:104EC0004846049900F0C4FC0490099B002B05DDC2
:104ED00029461A46484600F0BBFC0546119B002BAC
:104EE00061D02946049800F01FFD00285BDA08F124
:104EF000FF3306930A2200234846049900F0FCFA87
:104F00000D9B0490002B00F07A81002321460A2299
:104F1000484600F0F1FA089B0446002B72DC229B05
:104F2000022B49DC6EE0169BC3F1360343E7059B79
:104F30005D1E0C9BAB420DDB5D1B059B002BBFF682
:104F40003BAF059BFE1A002337E700BF0000E03FA0
:104F5000000024400C9B109AEB1A1A440C953E4614
:104F60000025059B109228E73E460C9D0D9C2DE7E1
:104F7000DDF810A054E70C9A049953E7CDF810A07F
:104F800054E74FF0000A7CE79A467AE74FF0000AB0
:104F90007BE792D0099A1C331A441F441E4409929D
:104FA0008BE70346F6E7059BCDF81880002B23DC42
:104FB0000893229B022B21DD089B002B7FF4ABADD5
:104FC00029460522484600F097FA0146054604980E
:104FD00000F0AAFC00287FF79EAD3123039E06F85F
:104FE000013B069B0133069399E535462C46F4E7D1
:104FF000059DCDF81880F9E7059B08930D9B002BC4
:1050000000F00181002E05DD21463246484600F0C1
:105010001FFC0446BAF1000F5AD04846616800F000
:105020000BFA064628B9024640F2EF21814BFFF702
:1050300033BB226904F10C01023292000C3001F002
:1050400003F801223146484600F002FC0746039B64
:10505000039A03F1010B089B13440A930E9B03F080
:10506000010309930BF1FF33294604980593FFF7D9
:1050700076FA2146089000F1300A049800F054FCBA
:105080003A4680462946484600F06AFCC268064611
:1050900002BB0146049800F047FC024631464846F0
:1050A0000C9200F007FA229B0C9A5E4642EA03013A
:1050B000099B194310D1BAF1390F2BD0B8F1000F69
:1050C00002DD089B03F1310A059B83F800A028E567
:1050D0002746BCE70122E1E7B8F1000F06DB229B7F
:1050E00048EA0308099B58EA030820D1002AEBDDAF
:1050F00001220499484600F0ABFB2946049000F0D9
:1051000013FC002803DCDFD11AF0010FDCD0BAF168
:10511000390FD6D13923059A137033461E4616F837
:10512000012C013B392A53D001321A70F9E4002ACC
:1051300007DDBAF1390FEDD0059A0AF101031370BA
:10514000EFE40A9B0BF801AC5B452BD000230A224D
:105150000499484600F0D0F9BC4204904FF0000397
:105160004FF00A022146484606D100F0C5F9044630
:1051700007460BF1010B75E700F0BEF9394604460E
:1051800000230A22484600F0B7F90746F1E7089BDA
:105190002746002B03F1FF36D8BF00260024039BCF
:1051A0005A1C164401220499484600F051FB294636
:1051B000049000F0B9FB0028AFDC02D11AF0010F17
:1051C000ABD133461E4613F8012D302AFAD0A8E49D
:1051D000039A9A42A2D1069B013306933123AEE78C
:1051E000269B002B7FF48CAA134BFFF7ABBA229BB4
:1051F000012B7FF72EAEDDF840A001204DE6089B85
:10520000002B7FF7D6AE039E29460498FFF7A7F937
:10521000039B00F1300A06F801ABF21A089B934297
:10522000B5DD00230A224846049900F065F9049090
:10523000EAE700BFC66300084A63000838B50546C0
:10524000002940D051F8043C0C1F002BB8BFE418D3
:1052500000F0E6F81C4A136833B96360146028460E
:10526000BDE8384000F0E2B8A34208D92068211810
:105270008B4201BF19685B6809182160EDE71A4687
:105280005B680BB1A342FAD911685018A0420BD148
:1052900020680144501883421160E0D118685B68AF
:1052A000084410605360DAE702D90C232B60D6E77C
:1052B000206821188B4201BF19685B6809182160BA
:1052C00063605460CBE738BD28040020024B0146E0
:1052D000186800F025B800BF1C00002070B50F4E04
:1052E0000C463168054611B900F09EFE306021463B
:1052F000284600F099FE431C03D14FF0FF342046AE
:1053000070BDC41C24F00304A042F8D0211A284622
:1053100000F08AFE0130F2D1EFE700BF2404002044
:105320002DE9F843CD1C25F0030508350C2D38BFB9
:105330000C25002D064601DBA94204D90C2333605D
:105340000020BDE8F883DFF8D48000F069F8D8F8D1
:1053500000301C4644BB29463046FFF7BFFF431CC4
:10536000044658D1D8F800402746002F43D1002CDE
:105370004BD023683946304604EB030900F054FE55
:10538000814542D1216830466D1A2946FFF7A6FFB4
:1053900001303AD023682B442360D8F800305A6893
:1053A00062BBC8F800700FE02268521B20D40B2AA1
:1053B00017D96119A342256018BF5960636808BFF7
:1053C000C8F8001062514B60304600F02FF804F12D
:1053D0000B00231D20F00700C21A1CBF1B1AA3508C
:1053E000AFE76268A3420CBFC8F800205A60EBE741
:1053F00023466468AEE73C467F68B6E71A465B68BA
:10540000A342FBD100235360DEE70C233046336018
:1054100000F00CF894E70560D6E700BF28040020F0
:105420000148FFF78CB800BF200400200148FFF7B7
:1054300087B800BF2004002070B5C46905460E4639
:1054400084B91020FFF742FF0446E86128B90246FC
:105450006B21164B164800F005FE0023C0E901330E
:105460000360C360E36853B921220421284600F099
:1054700017FEEB69E060DB680BB9002070BD53F8E4
:10548000260030B1026843F826200023C0E9033328
:10549000F4E7012101FA06F4621D2846920000F0AB
:1054A000FFFD0028E9D0C0E90164EEE7576300087A
:1054B000D763000870B5C66905460C4676B910205A
:1054C000FFF704FF0246E86120B98F21084B094825
:1054D00000F0C8FDC0E901660660C6603CB1EB693A
:1054E0006268DB6853F82210216043F8224070BDE7
:1054F00057630008D76300082DE9F04107460C46C2
:105500001E4600200D6901F1140CDCF8003001305A
:1055100099B202FB01611E0C0B0C02FB063389B22F
:1055200001EB034185424FEA13464CF8041BECDCC7
:105530000EB3A368AB4219DC616838460131FFF74E
:105540007BFF804628B90246BA210C4B0C4800F07C
:1055500089FD226904F10C01023292000C3000F046
:1055600073FD21463846FFF7A5FF444604EB85034B
:1055700001355E6125612046BDE8F081C663000803
:10558000D76300080346B0F5803F3ABF03041020FC
:105590000020B3F1807F3CBF1B020830B3F1805F75
:1055A0003CBF1B010430B3F1804F3CBF9B00023075
:1055B000002B05DB13F0804F00F1010008BF202015
:1055C00070470368024613F007000BD0D90721D4B7
:1055D000980749BF5B089B08012013605CBF02204D
:1055E0001360704799B209B910201B0CD9B209B9E0
:1055F00008301B0A190704BF1B090430990704BFB0
:105600009B080230D90703D45B0800F1010003D0E6
:1056100013607047002070472020704710B50C467B
:105620000121FFF709FF024628B940F24511044B5A
:10563000044800F017FD01234461036110BD00BF61
:10564000C6630008D76300082DE9F04FD1F8109029
:10565000D2F810A08846D145144685B004DB5346E5
:105660000C46CA4690469946A36861680AEB09064B
:10567000B342B8BF0131FFF7DFFE30B902464FF445
:10568000B171434B434800F0EDFC00F114052B468B
:10569000002205EB8607BB421FD304F1140C08F16E
:1056A00014010CEB8A0301EB890202921A1B153AD2
:1056B00022F0030215349C4288BF00220192029A14
:1056C00003918A420CD8002E03DD57F8043D002BCD
:1056D0005CD0066105B0BDE8F08F43F8042BDAE733
:1056E000B1F800A0BAF1000F23D0E046A9464FF070
:1056F000000E58F8042BD9F800401FFA82FBA4B220
:105700000AFB0B447444D9F800E0120C4FEA1E4E19
:105710000AFB02E202EB1442A4B244EA024443450B
:105720004FEA124E49F8044BE3D8019AAA18C2F87E
:1057300004E0039A0431B2F80280B8F1000F23D0DC
:105740002A68E6469146AA464FF0000BBEF8004094
:1057500092B208FB04B404EB194442EA04424AF84A
:10576000042B5EF8042BDAF800904FEA124B1FFA74
:1057700089F208FB0B22734502EB14424FEA124BED
:10578000E4D8019C2C196260043598E7013E9AE741
:10579000C6630008D76300082DE9F843174612F0E6
:1057A000030280460D4607D0264C013A002354F8E8
:1057B0002220FFF7A1FE0546BF103FD0D8F81C40BD
:1057C00094B91020FFF782FD0446C8F81C0030B9D8
:1057D000024640F2B3111C4B1C4800F043FC00236E
:1057E000C0E901330360C360A66846B940F2712185
:1057F0004046FFF713FF00230646A06003602C46D7
:105800004FF0000907F001037F1053B129463246DB
:105810004046FFF719FF214605464046FFF74AFE7E
:1058200067B1306838B9324631464046FFF70CFF61
:105830003060C0F8009006462C46E3E72846BDE8F5
:10584000F88300BF8864000857630008D763000826
:105850002DE9F84F0C46074615462369496803EBC6
:105860006218A3684FEA621A08F101094B450BDB85
:105870003846FFF7E1FD064648B902464FF4EF719E
:10588000274B284800F0EEFB01315B00EEE70023D8
:10589000194600F1140C00F11002534534DB226963
:1058A0002AEAEA7A0CEB8A0C04F1140315F01F0EB5
:1058B000614603EB82022BD00025CEF1200A8B46F5
:1058C0001868043100FA0EF02843CBF8000053F8B2
:1058D000045B9A4225FA0AF5F1D8131B153B23F015
:1058E000030304F115018A4238BF00239C44CCF81D
:1058F000045005B9C14638462146C6F81090FFF756
:10590000D9FD3046BDE8F88F42F8041F0133C4E7E3
:1059100053F8045B04319A4241F8045CF8D8E9E793
:10592000C6630008D763000803460A69006930B5FA
:10593000801A0ED11433143103EB820401EB82017F
:1059400054F8045D51F8042D954203D005D24FF070
:10595000FF3030BDA342F3D3FBE70120F9E700009D
:105960002DE9F74F8A460646114650461446FFF782
:10597000DBFF051E12D129463046FFF75DFD0246CA
:1059800028B940F23721404B404800F06BFB01231F
:10599000C0E90435104603B0BDE8F08FBCBF5346E4
:1059A000A2463046DAF80410BABF1C46012500258D
:1059B000FFF742FD024618B940F24521324BE3E7BA
:1059C000C56000F11405AB464FF0000CDAF810701A
:1059D00026690AF1140904F1140E0AF1100309EB07
:1059E00087080EEB86060193019B5EF8040B53F8C3
:1059F00004AF81B201931FFA8AF35B1A000C63446F
:105A0000C0EB1A4000EB23409BB243EA00437645CB
:105A10004FEA204C4BF8043BE6D8331B153B1534BA
:105A200023F00303A64238BF0023E8184B441C1D93
:105A300026460430A5EB0905464506EB050E0ED3B8
:105A400008F10301091B21F003010133984538BF18
:105A50000021014451F8043DA3B117619AE7E246E1
:105A600056F8041B1FFA81FCD4444FEA11495144F3
:105A700009EB2C4989B241EA09414FEA294CCEF899
:105A80000010D9E7013FE5E7C6630008D7630008C7
:105A90002DE97343012190469946089EFFF7CCFCFF
:105AA000044630B9024640F20F31234B234800F040
:105AB000D9FAC9F30A55C9F313030DB143F480139E
:105AC0000193B8F1000324D068460093FFF779FDF5
:105AD0000099E0B1019AC0F1200302FA03F30B43ED
